:100000000C9469000C9486000C9486000C94860075
:100010000C9486000C9486000C94CF090C947D09F6
:100020000C94A6090C9454090C942B090C94F9080F
:100030000C9486000C9486000C9486000C94860028
:100040000C9486000C9486000C9486000C94CE02CE
:100050000C948600910296029B02A002A502AA02BD
:10006000AF02600465046A046F04740479047E04BA
:10007000930498049D04A204A704AC04B104E20410
:10008000E704EC04F104F604FB04000515051A0569
:100090001F05240529052E053305CC0593055A05B2
:1000A000050646065E067606210626062B0630065F
:1000B00035063A063F06CF06B906A306E50622072F
:1000C00038074E07FF06040709070E07130718072E
:1000D0001D0711241FBECFE5D8E0DEBFCDBF11E064
:1000E000A0E6B0E0EEE1F4E102C005900D92A0318F
:1000F000B107D9F721E0A0E1B1E001C01D92A3331F
:10010000B207E1F70E94E8030C940D0A0C9400007A
:10011000982F9695969596958770613009F490C0C2
:1001200018F06230E9F10895913099F028F092309A
:1001300051F19330D9F008954AB321E030E0B9018C
:1001400002C0660F771F8A95E2F7CB01842B8ABB2A
:10015000089547B321E030E0B90102C0660F771F70
:100160008A95E2F7CB01842B87BB089541B321E048
:1001700030E0B90102C0660F771F8A95E2F7CB0124
:10018000842B81BB089544B321E030E0B90102C063
:10019000660F771F8A95E2F7CB01842B84BB089505
:1001A0009130C1F028F09230C9F1933029F10895CF
:1001B0004AB321E030E0B90102C0660F771F8A958B
:1001C000E2F7CB01962F909594239ABB9BB3892B92
:1001D0008BBB089547B321E030E0B90102C0660F40
:1001E000771F8A95E2F7CB01962F9095942397BBC2
:1001F00098B3892B88BB089541B321E030E0B90161
:1002000002C0660F771F8A95E2F7CB01962F909573
:10021000942391BB92B3892B82BB089544B321E010
:1002200030E0B90102C0660F771F8A95E2F7CB0173
:10023000962F9095942394BB95B3892B85BB0895F5
:100240009130C1F028F09230C9F1933029F108952E
:100250004AB321E030E0B90102C0660F771F8A95EA
:10026000E2F7CB018095942F98239ABB9BB3892307
:100270008BBB089547B321E030E0B90102C0660F9F
:10028000771F8A95E2F7CB018095942F982397BB2F
:1002900098B3892388BB089541B321E030E0B901C8
:1002A00002C0660F771F8A95E2F7CB018095942FE5
:1002B000982391BB92B3892382BB089544B321E074
:1002C00030E0B90102C0660F771F8A95E2F7CB01D3
:1002D0008095942F982394BB95B3892385BB08956B
:1002E000982F97708695869586958130C9F028F06D
:1002F0008230E1F1833039F108952BB341E050E0D1
:10030000092E02C0440F551F0A94E2F7842F8095EE
:10031000822301C0660F9A95EAF7682B6BBB08959C
:1003200028B341E050E0092E02C0440F551F0A9443
:10033000E2F7842F8095822301C0660F9A95EAF731
:10034000682B68BB089522B341E050E0092E02C03B
:10035000440F551F0A94E2F7842F8095822301C031
:10036000660F9A95EAF7682B62BB089525B341E0C2
:1003700050E0092E02C0440F551F0A94E2F7842F63
:100380008095822301C0660F9A95EAF7682B65BBBA
:100390000895282F2770869586958695813079F067
:1003A00028F08230F1F0833099F024C089B390E0D6
:1003B00002C0959587952A95E2F78170089586B3D6
:1003C00090E002C0959587952A95E2F7817008958F
:1003D00080B390E002C0959587952A95E2F78170E9
:1003E000089583B390E002C0959587952A95E2F72A
:1003F0008170089580E00895813041F028F08230C6
:1004000039F0833039F008956ABB089567BB0895C9
:1004100064BB089561BB0895813041F028F08230BB
:1004200039F0833039F008956BBB089568BB0895A7
:1004300065BB089562BB0895CF93DF93CDB7DEB758
:1004400027970FB6F894DEBF0FBECDBF87E0E7E673
:10045000F0E0DE01119601900D928A95E1F761E0DE
:1004600081E10E94880061E080E10E9488000E9492
:10047000ED030E9471030E94FE03CE0101960E94CB
:1004800077070E94E10385E790E00E949903BE018F
:100490006F5F7F4F81E60E94940727960FB6F8940E
:1004A000DEBF0FBECDBFDF91CF910895CF93DF9315
:1004B0002FEF80E792E0215080409040E1F700C0AC
:1004C000000080E191E00E94540864E080E00E9416
:1004D000A803C0E1D1E08A8190E00E94B6038AE3DC
:1004E0000E94E503898190E00E94B6038AE30E949E
:1004F000E503888190E00E94B6038AE790E00E94BD
:10050000990360E081E00E94A803EB818E2F90E0C8
:10051000FC013197E730F10530F5E65DFF4F0C94B3
:10052000F8098CE790E00E9499031DC083E890E0F1
:100530000E94990318C08AE890E00E94990313C0B2
:1005400082E990E00E9499030EC08BE990E00E943E
:10055000990309C084EA90E00E94990304C08BEAE1
:1005600090E00E94990368E081E00E94A803C0E146
:10057000D1E08C8190E00E94B6038FE20E94E503F7
:100580008D8190E00E94B6038FE20E94E5038E8188
:1005900090E00E94B603DF91CF9108951F920F92D1
:1005A0000FB60F9211242F933F934F935F936F9346
:1005B0007F938F939F93AF93BF93EF93FF9380911C
:1005C0003001813031F4E0913101F091320109952F
:1005D00008C0E0912E01F0912F0185EC86BF83B118
:1005E0000995FF91EF91BF91AF919F918F917F916D
:1005F0006F915F914F913F912F910F900FBE0F9090
:100600001F90189584EA86BF06B607FEFDCF0895B1
:1006100084E986BF089583B984E886BF06B607FEDD
:10062000FDCF089584EC86BF06B607FEFDCF83B1EB
:10063000089584E886BF06B607FEFDCF83B108950E
:1006400061E088E10E9470018FEC97E00197F1F77B
:1006500000C0000060E088E10E9470018FE99FE027
:100660000197F1F700C000000895CF93C82F60E014
:1006700089E10E9470016C2F607F81E00E940C0272
:100680000E94200380E1C89FB001112481E00E94F4
:100690000C020E9420038FE99FE00197F1F700C050
:1006A0000000CF910895CF93C82F61E089E10E94A7
:1006B00070016C2F607F81E00E940C020E94200379
:1006C00080E1C89FB001112481E00E940C020E94C9
:1006D00020038FE99FE00197F1F700C00000CF9160
:1006E000089560E088E10E94880060E089E10E944E
:1006F00088002FE788E391E0215080409040E1F7A7
:1007000000C0000060EF81E00E94FC0182E00E94D6
:10071000350382E00E94350388E20E94350386E0BB
:100720000E9435038CE00E94350381E00E9435036E
:100730000895CF93DF93EC018881882331F02196CF
:100740000E94530389918111FBCFDF91CF910895CE
:10075000811105C0862F80680E943503089581307D
:1007600021F4862F806C0E94350308950F931F9308
:10077000CF93DF938C019C01ADECBCEC0E94FE0991
:10078000EC01D695C795D695C795D695C7958C2F6C
:10079000805D0E945303CE01880F991FCC0FDD1F8F
:1007A000CC0FDD1FCC0FDD1FC80FD91FC8018C1B5C
:1007B0009D0B805D0E945303DF91CF911F910F919C
:1007C000089581E00E94350308950E94530308951F
:1007D0000E941C020E945602FDCF62E080E00E944F
:1007E000880062E081E00E94880062E082E00E946E
:1007F000880062E083E00E9488000895AF92BF9273
:10080000CF92DF92EF92FF920F931F93CF93DF93DC
:10081000CDB7DEB727970FB6F894DEBF0FBECDBFBA
:1008200087E0EEE6F0E0DE01119601900D928A95E8
:10083000E1F784EB90E00E94990380911701E1E0D9
:10084000F0E0EC0FFD1FE80FF11D808190E00E94A9
:10085000B60300E610E00F2EF4E1AF2EF02D0F2EC0
:10086000FCE0EF2EF02D0F2EFFE1BF2EF02D0F2E0E
:10087000F7E0CF2EF02D0F2EFBE3FF2EF02D21C33E
:1008800080E00E94C90181117CC080E00E94C90102
:100890008823D9F380911701882391F00E94E10306
:1008A00080911701EFEFE80FE09317018E2F90E092
:1008B0008730910538F5FC01EF5CFF4F0C94F80987
:1008C0008CEB90E00E9499031DC084EC90E00E94A4
:1008D000990318C08CEC90E00E94990313C082ED3C
:1008E00090E00E9499030EC087ED90E00E9499036A
:1008F00009C08DED90E00E94990304C084EE90E061
:100900000E94990380911701833081F5EC818E2F2D
:1009100090E0FC013197E730F10508F0D2C2E85CC5
:10092000FF4F0C94F8098CE790E00E949903C9C22C
:1009300083E890E00E949903C4C28AE890E00E9494
:100940009903BFC282E990E00E949903BAC28BE981
:1009500090E00E949903B5C284EA90E00E94990356
:10096000B0C28BEA90E00E949903ABC2E1E0F0E0F4
:10097000EC0FFD1FE80FF11D808190E00E94B6038F
:10098000A0C281E00E94C90181117DC081E00E9466
:10099000C9018823D9F380911701883008F091C2EA
:1009A0000E94E10380911701E1E0E80FE093170155
:1009B0008E2F90E08730910538F5FC01E15CFF4F08
:1009C0000C94F8098CEB90E00E9499031DC084EC14
:1009D00090E00E94990318C08CEC90E00E9499036B
:1009E00013C082ED90E00E9499030EC087ED90E065
:1009F0000E94990309C08DED90E00E94990304C004
:100A000084EE90E00E94990380911701833081F574
:100A1000EC818E2F90E0FC013197E730F10508F072
:100A200050C2EA5BFF4F0C94F8098CE790E00E94FB
:100A3000990347C283E890E00E94990342C28AE882
:100A400090E00E9499033DC282E990E00E949903E0
:100A500038C28BE990E00E94990333C284EA90E0A7
:100A60000E9499032EC28BEA90E00E94990329C24A
:100A7000E1E0F0E0EC0FFD1FE80FF11D808190E058
:100A80000E94B6031EC282E00E94C901811145C1C5
:100A900082E00E94C9018823D9F3E09117018E2FCB
:100AA00090E08730910508F00CC2FC01E35BFF4F3A
:100AB0000C94F8090E94E1038AEE90E00E949903E9
:100AC0008091170190E0FC01E05AFF4F208127310F
:100AD00050F4E1E0F0E0EC0FFD1FE80FF91F20817A
:100AE0002F5F208307C0E1E0F0E0EC0FFD1FE80F6F
:100AF000F91F1082E1E0F0E0EC0FFD1FE80FF91F95
:100B0000808190E00E94B6038091170190E0FC0183
:100B1000E05AFF4FA1E0B0E0AC0FBD1FA80FB91F16
:100B20008C918083CEC10E94E10384EC90E00E940E
:100B300099038091170190E0FC01E05AFF4F20815A
:100B40002B3350F4E1E0F0E0EC0FFD1FE80FF91F4C
:100B500020812F5F208307C0E1E0F0E0EC0FFD1F54
:100B6000E80FF91F1082E1E0F0E0EC0FFD1FE80F45
:100B7000F91F808190E00E94B6038091170190E0F8
:100B8000FC01E05AFF4FA1E0B0E0AC0FBD1FA80F81
:100B9000B91F8C91808395C10E94E10380EF90E0A2
:100BA0000E9499038091170190E0FC01E05AFF4FE9
:100BB00020812B3350F4E1E0F0E0EC0FFD1FE80F53
:100BC000F91F20812F5F208307C0E1E0F0E0EC0FE8
:100BD000FD1FE80FF91F1082E1E0F0E0EC0FFD1FB0
:100BE000E80FF91F808190E00E94B6038091170101
:100BF00090E0FC01E05AFF4FA1E0B0E0AC0FBD1F58
:100C0000A80FB91F8C9180835CC10E94E10388EF1B
:100C100090E00E949903F8018381873070F4DC80B2
:100C2000D394DC828D2D90E0FC013197E730F10503
:100C300050F5EC5AFF4F0C94F80981E08C83DD24C9
:100C4000D3948CE790E00E9499031DC083E890E064
:100C50000E94990318C08AE890E00E94990313C08B
:100C600082E990E00E9499030EC08BE990E00E9417
:100C7000990309C084EA90E00E94990304C08BEABA
:100C800090E00E949903F801D3821BC10E94E10306
:100C90008DEF90E00E949903F80184818F3120F458
:100CA0008D818F5F8D8302C081E08D83DD808D2DEE
:100CB00090E00E94B603F801D48203C10E94E103D0
:100CC00083E091E00E949903F80185818C3020F443
:100CD0008E818F5F8E8302C081E08E83DE808D2DBA
:100CE00090E00E94B603F801D582EBC00E94E103B8
:100CF0008AE091E00E949903F8018681833620F40E
:100D00008F818F5F8F8301C0AF82DF808D2D90E058
:100D10000E94B603F801D682D4C083E00E94C901C4
:100D20008111CFC083E00E94C9018823D9F380914B
:100D3000170190E08730910508F0C3C0FC01E55A27
:100D4000FF4F0C94F8090E94E1038AEE90E00E94A4
:100D50009903F8018281811102C0EB8203C08B816B
:100D600081508B838B81F801828390E00E94B603CF
:100D7000A8C00E94E10384EC90E00E949903F8016E
:100D80008181811102C0FA8203C08A8181508A83E5
:100D90008A81F801818390E00E94B60392C00E948C
:100DA000E10380EF90E00E949903F80180818111B6
:100DB00002C0F98203C08981815089838981F80149
:100DC000808390E00E94B6037CC00E94E10388EF1C
:100DD00090E00E949903F8018381813011F4CC8264
:100DE0002CC08C8181508C8390E0FC013197E730DE
:100DF000F10508F066C0EE59FF4F0C94F8098CE736
:100E000090E00E9499035DC083E890E00E949903FE
:100E100058C08AE890E00E94990353C082E990E0AC
:100E20000E9499034EC08BE990E00E94990349C04B
:100E300084EA90E00E94990344C08BEA90E00E940B
:100E400099033FC00E94E1038DEF90E00E94990357
:100E5000F8018481813011F4BD8203C08D818150FD
:100E60008D838D81F801848390E00E94B60329C0B0
:100E70000E94E10383E091E00E949903F8018581DB
:100E8000813011F4EE8203C08E8181508E838E8179
:100E9000F801858390E00E94B60313C0F8018681B3
:100EA000843178F00E94E1038AE091E00E94990386
:100EB000DF80DA94DF828D2D90E00E94B603F80186
:100EC000D68280911701873008F4DACC27960FB6C6
:100ED000F894DEBF0FBECDBFDF91CF911F910F9170
:100EE000FF90EF90DF90CF90BF90AF900895FC01FE
:100EF000A0E6B0E08C91808311968C91119781834C
:100F000012968C911297828313968C9113978383F8
:100F100014968C911497848315968C9115978583DC
:100F200016968C91868308951F93CF93DF93182F85
:100F3000EB0128818DEC289F912D11249695969593
:100F4000969530E1939FA0011124990F392F330F0B
:100F5000330F930F291B242B28832981289F912D40
:100F6000112496959695969530E1939FA0011124B2
:100F7000990F392F330F330F930F291B242B2983FC
:100F80002A81289F912D112496959695969530E16A
:100F9000939FA0011124990F392F330F330F930F13
:100FA000291B242B2A832B81289F912D1124969570
:100FB0009695969530E1939FA0011124990F392FB2
:100FC000330F330F930F291B242B2B832C81289F46
:100FD000912D112496959695969530E1939FA001B9
:100FE0001124990F392F330F330F930F291B242B03
:100FF0002C832D81289F912D112496959695969559
:1010000030E1939FA0011124990F392F330F330F33
:10101000930F291B242B2D839E81989F812D1124B2
:1010200086958695869540E1849F90011124880FCE
:10103000382F330F330F830F981B922B9E8310345E
:1010400019F0103639F00BC0E9E1F1E082818064DB
:10105000828305C0E9E1F1E08281806682830E949B
:10106000020380ED0E940B0380E00E940B03888145
:101070000E940B0389810E940B038A810E940B034B
:101080008B810E940B038C810E940B038D810E9437
:101090000B038E810E940B030E940803109318011A
:1010A000DF91CF911F910895FF920F931F93CF93DC
:1010B000DF93EC010E94020380ED0E940B0380E0AD
:1010C0000E940B030E94020381ED0E940B030E9409
:1010D0001203F82E0E941203182F0E941903082FE2
:1010E0000E9408039F2D92959F70990F392F330FFF
:1010F000330F292F230F9F2D9F70920F9883812FDD
:1011000082958F70880F282F220F220F982F920F11
:10111000812F8F70890F8983802F82958F70880F20
:10112000982F990F990F890F902F9F70890F8A839D
:1011300006FF0AC085FF04C080E68093180107C03F
:1011400080E48093180103C081E6809318010E9417
:10115000020380ED0E940B0383E00E940B030E94B8
:10116000020381ED0E940B030E941203F82E0E94DD
:101170001203082F0E941203182F0E9419033F2DFB
:1011800032953F70330F532F550F550F432F450F97
:101190003F2D3F70340F3B83202F22952F70220F5D
:1011A000422F440F440F322F340F202F2F70230F64
:1011B0002C83912F92959F70990F392F330F330FF6
:1011C000292F230F912F9F70920F9D83982F929517
:1011D0009F70990F292F220F220F920F8F70890F66
:1011E0008E830E940803DF91CF911F910F91FF9092
:1011F00008951F920F920FB60F9211242F933F93D1
:101200004F935F936F937F938F939F93AF93BF930E
:10121000EF93FF93E0912A01F0912B01309751F069
:1012200009958091200190912101019690932101CF
:1012300080932001FF91EF91BF91AF919F918F918A
:101240007F916F915F914F913F912F910F900FBEC2
:101250000F901F9018951F920F920FB60F921124A6
:101260002F933F934F935F936F937F938F939F93AE
:10127000AF93BF93EF93FF93E0912C01F0912D0179
:10128000309709F00995FF91EF91BF91AF919F9130
:101290008F917F916F915F914F913F912F910F901F
:1012A0000FBE0F901F9018951F920F920FB60F92BE
:1012B00011242F933F934F935F936F937F938F935B
:1012C0009F93AF93BF93EF93FF93E0912201F0912F
:1012D0002301309709F00995FF91EF91BF91AF91EC
:1012E0009F918F917F916F915F914F913F912F913E
:1012F0000F900FBE0F901F9018951F920F920FB670
:101300000F9211242F933F934F935F936F937F938B
:101310008F939F93AF93BF93EF93FF93E09124013B
:10132000F0912501309709F00995FF91EF91BF9158
:10133000AF919F918F917F916F915F914F913F916D
:101340002F910F900FBE0F901F9018951F920F9224
:101350000FB60F9211242F933F934F935F936F9388
:101360007F938F939F93AF93BF93EF93FF93E091FE
:101370002601F0912701309709F00995FF91EF912F
:10138000BF91AF919F918F917F916F915F914F919D
:101390003F912F910F900FBE0F901F9018951F92A5
:1013A0000F920FB60F9211242F933F934F935F9399
:1013B0006F937F938F939F93AF93BF93EF93FF931D
:1013C000E0912801F0912901309709F00995FF91EA
:1013D000EF91BF91AF919F918F917F916F915F91AD
:1013E0004F913F912F910F900FBE0F901F90189526
:1013F000EE0FFF1F0590F491E02D0994A29FB0011C
:10140000B39FC001A39F700D811D1124911DB29F38
:0E141000700D811D1124911D0895F894FFCFD9
:10141E000000000101011400000001010114000090
:10142E000001010114434C4B3A00200053756E64C9
:10143E006179004D6F6E64617900547565736461F6
:10144E00790057656E6473646179005468757273C0
:10145E0064617900467269646179005361747572D2
:10146E00646179005365636F6E6473005365636FD7
:10147E006E643A004D494E5554453A00484F555208
:10148E003A004441593A00444154453A004D4F4EBA
:10149E0054483A00594541523A00486F75723A0025
:1014AE005345434F4E443A004461793A00446174C7
:1014BE00653A004D6F6E74683A00596561723A0074
:00000001FF
