S01200005254435F4453313330372E7372656368
S11300000C9454000C9471000C9471000C947100C5
S11300100C9471000C9471000C94CD070C947B0724
S11300200C94A4070C9452070C9429070C94F7061B
S11300300C9471000C9471000C9471000C94710078
S11300400C9471000C9471000C9471000C948D024A
S11300500C9471005E026102640267026A026D021E
S11300607002060409040C040F0412041504180495
S11300705B04560440048E04C204D904F004A904A9
S1130080AC04AF04B204B504B804BB043E052B05AC
S11300901805510584059705AD0572056D057505AF
S11300A078057B057E05810511241FBECFE5D8E0C8
S11300B0DEBFCDBF11E0A0E6B0E0ECE3F0E102C0AA
S11300C005900D92A031B107D9F721E0A0E1B1E08C
S11300D001C01D92A333B207E1F70E9483030C947D
S11300E01C080C940000982F969596959695877009
S11300F0613009F48CC018F06230E9F10895913050
S113010099F028F0923051F19330D9F008954AB320
S113011021E030E0B90102C0660F771F8A95E2F74B
S1130120CB01842B8ABB089547B321E030E0B901A9
S113013002C0660F771F8A95E2F7CB01842B87BB39
S1130140089541B321E030E0B90102C0660F771F82
S11301508A95E2F7CB01842B81BB089544B321E057
S113016030E0B90102C0660F771F8A95E2F7CB0130
S1130170842B84BB08959130B9F028F09230B1F10A
S1130180933019F108954AB321E030E0B90102C077
S1130190660F771F8A95E2F7CB01962F90959423EB
S11301A09ABB9BB3892B4BC047B321E030E0B90124
S11301B002C0660F771F8A95E2F7CB01962F9095C0
S11301C0942397BB98B3892B4CC041B321E030E012
S11301D0B90102C0660F771F8A95E2F7CB01962F0B
S11301E09095942391BB92B3892B4DC044B321E0E5
S11301F030E0B90102C0660F771F8A95E2F7CB01A0
S1130200962F9095942394BB95B3892B4EC091302F
S1130210C1F028F09230C9F1933029F108954AB31E
S113022021E030E0B90102C0660F771F8A95E2F73A
S1130230CB018095942F98239ABB9BB389238BBBC6
S1130240089547B321E030E0B90102C0660F771F7B
S11302508A95E2F7CB018095942F982397BB98B3A6
S1130260892388BB089541B321E030E0B90102C07D
S1130270660F771F8A95E2F7CB018095942F982318
S113028091BB92B3892382BB089544B321E030E04B
S1130290B90102C0660F771F8A95E2F7CB018095FA
S11302A0942F982394BB95B3892385BB0895982FE5
S11302B097708695869586958130C1F028F08230B6
S11302C0C9F1833029F108952BB341E050E0092EA0
S11302D001C0440F0A94EAF7842F8095822301C059
S11302E0660F9A95EAF7682B6BBB089528B341E033
S11302F050E0092E01C0440F0A94EAF7842F809538
S1130300822301C0660F9A95EAF7682B68BB0895AB
S113031022B341E050E0092E01C0440F0A94EAF7E9
S1130320842F8095822301C0660F9A95EAF7682B83
S113033062BB089525B341E050E0092E01C0440F8B
S11303400A94EAF7842F8095822301C0660F9A9558
S1130350EAF7682B65BB0895282F27708695869544
S11303608695813049F030F0823041F0833079F461
S113037080B305C089B303C086B301C083B390E0E2
S113038002C0959587952A95E2F78170089580E0DB
S11303900895813041F028F0823039F0833039F00B
S11303A008956ABB089567BB089564BB089561BB53
S11303B00895813041F028F0823039F0833039F0EB
S11303C008956BBB089568BB089565BB089562BB2F
S11303D00895CF93DF93CDB7DEB727970FB6F89480
S11303E0DEBF0FBECDBF87E0E7E6F0E0DE01119689
S11303F001900D928A95E1F761E081E10E9473001A
S113040061E080E10E9473000E9488030E9430032F
S11304100E949803CE0101960E94D1050E947E039A
S113042085E790E00E945703BE016F5F7F4F81E62E
S11304300E94EE0527960FB6F894DEBF0FBECDBF1F
S1130440DF91CF9108952FEF80E792E02150804013
S11304509040E1F700C0000080E191E00E946D0649
S113046064E080E00E9463038091120190E00E94A6
S11304706F038AE30E9481038091110190E00E943E
S11304806F038AE30E9481038091100190E00E942F
S11304906F038AE790E00E94570360E081E00E94C6
S11304A06303E09113018E2F90E0FC013197E73054
S11304B0F105D0F4E65DFF4F0C9416088CE790E04C
S11304C011C083E890E00EC08AE890E00BC082E996
S11304D090E008C08BE990E005C084EA90E002C097
S11304E08BEA90E00E94570368E081E00E94630376
S11304F08091140190E00E946F038FE20E948103B7
S11305008091150190E00E946F038FE20E948103A5
S11305108091160190E00C946F031F920F920FB616
S11305200F9211242F933F934F935F936F937F9375
S11305308F939F93AF93BF93EF93FF938091300179
S1130540813031F4E0913101F0913201099508C014
S1130550E0912E01F0912F0185EC86BF83B10995BE
S1130560FF91EF91BF91AF919F918F917F916F9187
S11305705F914F913F912F910F900FBE0F901F905D
S1130580189584EA86BF06B607FEFDCF089584E970
S113059086BF089583B984E886BF06B607FEFDCFFB
S11305A0089584EC86BF06B607FEFDCF83B1089597
S11305B084E886BF06B607FEFDCF83B1089561E0E7
S11305C088E10E9457018FEC97E00197F1F700C092
S11305D0000060E088E10E9457018FE99FE00197E5
S11305E0F1F700C000000895CF93C82F60E089E1BF
S11305F00E9457016C2F607F81E00E94D9010E9404
S1130600DF0280E1C89FB001112481E00E94D9017A
S11306100E94DF028FE99FE00197F1F700C000001C
S1130620CF910895CF93C82F61E089E10E945701CB
S11306306C2F607F81E00E94D9010E94DF0280E17B
S1130640C89FB001112481E00E94D9010E94DF02F9
S11306508FE99FE00197F1F700C00000CF91089562
S113066060E088E10E94730060E089E10E94730009
S11306702FE788E391E0215080409040E1F700C0EB
S1130680000060EF81E00E94C90182E00E94F40250
S113069082E00E94F40288E20E94F40286E00E9452
S11306A0F4028CE00E94F40281E00C94F402CF93F3
S11306B0DF93EC018991882319F00E941203FACF89
S11306C0DF91CF910895811103C0862F806804C003
S11306D0813021F4862F806C0C94F4020895CF931A
S11306E06AE070E00E940208C82F80E3860F0E942F
S11306F0120380E38C0FCF910C94120381E00C94CD
S1130700F4020C9412030E94E9010E942302FDCF1B
S113071062E080E00E94730062E081E00E94730066
S113072062E082E00E94730062E083E00C94730054
S1130730CF92DF92EF92FF920F931F93CF93DF93A9
S1130740CDB7DEB727970FB6F894DEBF0FBECDBF87
S113075087E0EEE6F0E0DE01119601900D928A95B5
S1130760E1F784EB90E00E94570380911701E1E0E8
S1130770F0E0EC0FFD1FE80FF11D808190E00E9476
S11307806F031CE08FE1F82E97E0E92E0BE324E1E0
S1130790D22E80911701873008F0F4C180E00E94C6
S11307A0AC01811113C080E00E94AC018823D9F30D
S11307B080911701882339F00E947E0380911701EC
S11307C0815080931701E091170116C081E00E94C7
S11307D0AC0181113EC081E00E94AC018823D9F3B1
S11307E0809117018830A8F60E947E03809117013A
S11307F0E1E0E80FE09317018E2F90E08730910538
S1130800D8F4FC01EF5CFF4F0C9416088CEB90E0DD
S113081011C084EC90E00EC08CEC90E00BC082ED33
S113082090E008C087ED90E005C08DED90E002C037
S113083084EE90E00E94570380911701833009F4FD
S11308403FC1E1E0F0E0EC0FFD1FE80FF11D8081F6
S113085080C182E00E94AC018111D3C082E00E9479
S1130860AC018823D9F3E09117018E2F90E08730F3
S1130870910508F08ECFFC01E85CFF4F0C9416083C
S11308800E947E038AEE90E00E9457038091170134
S113089090E0FC01E05AFF4F2081E1E0F0E0EC0F32
S11308A0FD1FE80FF91F2731F8F41AC00E947E03D8
S11308B084EC90E004C00E947E0380EF90E00E94EC
S11308C057038091170190E0FC01E05AFF4F20810B
S11308D0E1E0F0E0EC0FFD1FE80FF91F2B3320F4EB
S11308E020812F5F208301C01082E1E0F0E0EC0F53
S11308F0FD1FE80FF91F808190E00E946F03809133
S1130900170190E0FC01E05AFF4FA1E0B0E0AC0F0A
S1130910BD1FA80FB91F8C9180833BCF0E947E031B
S113092088EF90E00E94570380916300873018F4A9
S11309308C818F5F01C081E08C83CC808C2D90E012
S1130940FC013197E730F105D0F4E15CFF4F0C94E2
S113095016088CE790E011C083E890E00EC08AE8A6
S113096090E00BC082E990E008C08BE990E005C0FC
S113097084EA90E002C08BEA90E00E945703C092A0
S1130980630007CF0E947E038DEF90E00E9457031F
S1130990809164008F3118F48D818F5F01C081E0F4
S11309A08D83CD808C2D90E00E946F03C0926400F3
S11309B0F0CE0E947E0383E091E00E945703809171
S11309C065008C3018F48E818F5F01C081E08E83C6
S11309D0CE808C2D90E00E946F03C0926500D9CE2A
S11309E00E947E038AE091E00E9457038091660092
S11309F0833620F48F818F5F8F8301C0DF82CF80A5
S1130A00BAC083E00E94AC018111C3CE83E00E948E
S1130A10AC018823D9F3E09117018E2F90E0873041
S1130A20910508F0B6CEFC01EA5BFF4F0C94160862
S1130A300E947E038AEE90E00E9457038091620038
S1130A40811102C01B8303C08B8181508B838B81F6
S1130A50809362007EC00E947E0384EC90E00E943A
S1130A60570380916100811102C00A8303C08A8107
S1130A7081508A838A81809361006BC00E947E03C7
S1130A8080EF90E00E94570380916000811102C0C2
S1130A90098303C08981815089838981809360009F
S1130AA058C00E947E0388EF90E00E945703809113
S1130AB06300813011F4EC8203C08C8181508C83FB
S1130AC0EC818E2F90E0FC013197E730F10508F0BE
S1130AD060CEE35BFF4F0C94160883E890E00E941D
S1130AE0570357CE8CE790E0FACF8AE890E0F7CF2F
S1130AF082E990E0F4CF8BE990E0F1CF84EA90E0D2
S1130B00EECF8BEA90E0EBCF0E947E038DEF90E076
S1130B100E94570380916400813011F4FD8203C068
S1130B208D8181508D838D818093640012C00E94D9
S1130B307E0383E091E00E94570380916500813039
S1130B4011F41E8303C08E8181508E838E81809325
S1130B50650090E00E946F031CCE80916600843192
S1130B6008F417CE0E947E038AE091E00E945703A6
S1130B70CF80CA94CF828C2D90E00E946F03C092E4
S1130B80660007CE27960FB6F894DEBF0FBECDBF22
S1130B90DF91CF911F910F91FF90EF90DF90CF9055
S1130BA00895FC01A0E6B0E08C91808311968C91AD
S1130BB01197818312968C911297828313968C914C
S1130BC01397838314968C911497848315968C9130
S1130BD01597858316968C91868308951F93CF93DA
S1130BE0DF93182FEB0188812AE0622F0E94F60719
S1130BF0392F40E1849FC0011124832B888389818C
S1130C000E94F607392F40E1849FC0011124832BF1
S1130C1089838A810E94F607392F40E1849FC001AD
S1130C201124832B8A838B810E94F607392F40E19C
S1130C30849FC0011124832B8B838C810E94F6072F
S1130C40392F40E1849FC0011124832B8C838D8133
S1130C500E94F607392F40E1849FC0011124832BA1
S1130C608D838E810E94F607292F30E1839FC00176
S1130C701124822B8E83103431F0103649F4809184
S1130C801B01806603C080911B01806480931B015B
S1130C900E94C10280ED0E94CA0280E00E94CA0242
S1130CA088810E94CA0289810E94CA028A810E94A4
S1130CB0CA028B810E94CA028C810E94CA028D8161
S1130CC00E94CA028E810E94CA020E94C702109327
S1130CD01801DF91CF911F910895FF920F931F93F5
S1130CE0CF93DF93EC010E94C10280ED0E94CA02FF
S1130CF080E00E94CA020E94C10281ED0E94CA02E1
S1130D000E94D102082F0E94D102182F0E94D802FB
S1130D10F82E0E94C702802F82958F700F702AE0F0
S1130D20829F000D11240883812F82958F701F707C
S1130D303AE0839F100D112419839F2D92959F7083
S1130D408F2D8F702AE0929F800D11248A83F6FEE6
S1130D5006C085FF02C080E603C080E401C081E6CE
S1130D60809318010E94C10280ED0E94CA0283E0B0
S1130D700E94CA020E94C10281ED0E94CA020E941E
S1130D80D102F82E0E94D102082F0E94D102182FFE
S1130D900E94D8029F2D92959F702F2D2F70F22EB6
S1130DA03AE0939FF00C1124FB82902F92959F7050
S1130DB00F702AE0929F000D11240C83912F9295BD
S1130DC09F701F703AE0939F100D11241D83982F7C
S1130DD092959F708F702AE0929F800D11248E83CC
S1130DE0DF91CF911F910F91FF900C94C7021F9236
S1130DF00F920FB60F9211242F933F934F935F934B
S1130E006F937F938F939F93AF93BF93EF93FF93CE
S1130E10E0912A01F0912B01309751F009958091CE
S1130E20200190912101019690932101809320014A
S1130E30FF91EF91BF91AF919F918F917F916F91AE
S1130E405F914F913F912F910F900FBE0F901F9084
S1130E5018951F920F920FB60F9211242F933F9360
S1130E604F935F936F937F938F939F93AF93BF93AE
S1130E70EF93FF93E0912C01F0912D01309709F04D
S1130E800995FF91EF91BF91AF919F918F917F91C0
S1130E906F915F914F913F912F910F900FBE0F90E3
S1130EA01F9018951F920F920FB60F9211242F9333
S1130EB03F934F935F936F937F938F939F93AF93DE
S1130EC0BF93EF93FF93E0912201F09123013097B8
S1130ED009F00995FF91EF91BF91AF919F918F9187
S1130EE07F916F915F914F913F912F910F900FBE22
S1130EF00F901F9018951F920F920FB60F92112406
S1130F002F933F934F935F936F937F938F939F930D
S1130F10AF93BF93EF93FF93E0912401F0912501E8
S1130F20309709F00995FF91EF91BF91AF919F918F
S1130F308F917F916F915F914F913F912F910F907E
S1130F400FBE0F901F9018951F920F920FB60F921D
S1130F5011242F933F934F935F936F937F938F93BA
S1130F609F93AF93BF93EF93FF93E0912601F0918A
S1130F702701309709F00995FF91EF91BF91AF9147
S1130F809F918F917F916F915F914F913F912F919D
S1130F900F900FBE0F901F9018951F920F920FB6CF
S1130FA00F9211242F933F934F935F936F937F93EB
S1130FB08F939F93AF93BF93EF93FF93E091280197
S1130FC0F0912901309709F00995FF91EF91BF91B4
S1130FD0AF919F918F917F916F915F914F913F91CD
S1130FE02F910F900FBE0F901F901895991B79E0C9
S1130FF004C0991F961708F0961B881F7A95C9F7A5
S113100080950895AA1BBB1B51E107C0AA1FBB1FF3
S1131010A617B70710F0A61BB70B881F991F5A9580
S1131020A9F780959095BC01CD010895EE0FFF1F9F
S10F10300590F491E02D0994F894FFCF92
S113103C0000000101011400000001010114000072
S113104C0001010114434C4B3A00200053756E64AB
S113105C6179004D6F6E64617900547565736461D8
S113106C790057656E6473646179005468757273A2
S113107C64617900467269646179005361747572B4
S113108C646179005365636F6E6473005365636FB9
S113109C6E643A004D494E5554453A00484F5552EA
S11310AC3A004441593A00444154453A004D4F4E9C
S11310BC54483A00594541523A00486F75723A0007
S11310CC5345434F4E443A004461793A00446174A9
S11310DC653A004D6F6E74683A00596561723A0056
S9030000FC
